:020000040000FA
:1000000090FE0020C1040000C90400001504000097
:10001000CD040000CF040000D10400000000000067
:10002000000000000000000000000000D3040000F9
:100030000000000000000000D5040000D70400000C
:10004000D9040000D9040000D9040000E514000020
:10005000F1140000D9040000910A00002D0C0000EA
:100060003117000085170000D9040000D9040000F2
:10007000D9040000D9040000D9040000D90400000C
:10008000D9040000D9040000D9040000D9040000FC
:10009000FD140000D9040000D9040000D9040000B8
:1000A000D9040000D9040000D9040000D9040000DC
:1000B000D9040000D9040000000000000000000086
:1000C000D9040000D9040000D9040000D9040000BC
:1000D000D9040000D9040000000000000000000066
:1000E0000000000000000000000000000000000010
:1000F0000000000000000000000000000000000000
:1001000000000000000000000000000000000000EF
:1001100000000000000000000000000000000000DF
:10040000DFF80CD000F0A4FA00480047C932000021
:1004100090FE0020094B1EF0040F1CBFEFF3098073
:100420001847EFF308800649064A884201D89042EF
:1004300002D88D464FF0000018470000CD0B000099
:1004400090FE002090EE0020401E00BF00BF00BFC5
:1004500000BF00BF00BF00BF00BF00BF00BF00BFA4
:1004600000BF00BF00BF00BF00BF00BF00BF00BF94
:1004700000BF00BF00BF00BF00BF00BF00BF00BF84
:1004800000BF00BF00BF00BF00BF00BF00BF00BF74
:1004900000BF00BF00BF00BF00BF00BF00BF00BF64
:1004A00000BF00BF00BF00BF00BF00BF00BF00BF54
:1004B00000BF00BF00BF00BF00BFC5D17047000034
:1004C0000648804706480047FEE7FEE7FEE7FEE7EE
:1004D000FEE7FEE7FEE7FEE7FEE70000B5150000D9
:1004E0000104000040EA01039B0703D009E008C9AA
:1004F000121F08C0042AFAD203E011F8013B00F8E9
:10050000013B521EF9D27047D2B201E000F8012B34
:10051000491EFBD270470022F6E710B513460A4683
:1005200004461946FFF7F0FF204610BD00F00042D8
:1005300030F000400AD0C10D01F56071C0F3160023
:1005400042EA0151C20840071143704700200146AA
:10055000704730B50B46014600202022012409E0F7
:1005600021FA02F59D4205D303FA02F5491B04FA6C
:1005700002F52844151EA2F10102F1DC30BD2DE97F
:10058000F05F0546002092469B4688460646814617
:1005900040241BE0284641464746224600F0F9F930
:1005A00053465A46C01A914110D311461846224666
:1005B00000F0E0F92D1A67EB01084F4622460120B2
:1005C000002100F0D7F917EB00094E41201EA4F1DD
:1005D0000104DFDC484631462A464346BDE8F09F29
:1005E0002DE9FE4F804681EA0300C00F0C460090C3
:1005F00021F0004123F00045B8EB0200A94105D2EB
:100600004046214690461C460B46024623F00040D9
:10061000104347D0270DC7F30A00C3F30A510290D5
:10062000401A019040286BDAC3F3130040F4801B9A
:100630000098924620B10023D2EB030A63EB0B0B28
:1006400001985946C0F14002504600F093F9064621
:100650000D4650465946019A00F0ABF910EB0800E0
:100660006141002487EA115284EAE7731A4340D0BB
:10067000009A62B3019A012A4FEA075215DC001B67
:1006800061EB02014FF0004202EA0752CDE900425D
:10069000001C41F5801132462B4600F0ABF903B047
:1006A000BDE8F08F40462146F9E7001B61EB0201EF
:1006B000001C41F5801300185B412018A2F50017BB
:1006C00047EB030140EAD570B6196D4111E06D08A2
:1006D0004FEA360645EAC0754FEA0752001B61EB48
:1006E0000201001C41F5801149084FEA3000001951
:1006F000514132462B4603B0BDE8F04F00F06BB9D4
:100700000098012240000023D0EB020263EBE0736B
:10071000009821464FEAE074B8EB000061EB040159
:10072000E9E783F000435BE781F0004158E72DE9FA
:10073000FE4F81EA030404F0004421F000410094DC
:100740004FF0000B23F0004350EA01045ED052EA60
:1007500003045BD0C3F30A54C1F30A552C44A4F23A
:10076000F3340194A0FB0254C1F3130141F480114E
:10077000C3F3130343F4801301FB024400FB034E55
:10078000840A970A44EA815447EA8357A4FB07681E
:1007900002958D0A05FB07854FEA932C04FB0C5448
:1007A0002705029D4FEA065847EA1637B5EB0805BC
:1007B0006EEB070C870E920E47EA811742EA83120E
:1007C000A7FB0201B6EB0B0164EB00042B0D43EA1F
:1007D0000C335E1844EB1C50DA465146E7FB02012D
:1007E000C5F313044FEA0B3343EA14534FEA0432C0
:1007F000019C43EA0603A4F10C040294009CCDE999
:1008000000B400F0F7F803B0BDE8F08F0020014617
:10081000F9E72DE9F04D81EA030404F0004B21F0E3
:10082000004514464FF0000A23F0004150EA05024B
:1008300020D054EA01021DD0C5F30A570246C5F381
:100840001303C1F31300C1F30A5640F4801543F4B7
:100850008013A7EB0608101BD64608F2FD3873EB91
:10086000050002D308F1010801E092185B41B8F1DC
:10087000000F03DA00200146BDE8F08D00204FF4A0
:100880008011064684460EE0171B73EB050705D35F
:10089000121B63EB050306434CEA010C49084FEABF
:1008A000300092185B4150EA0107EDD152EA030093
:1008B00012D082EA040083EA0501084305D0101B28
:1008C000AB4106D20122002306E000224FF0004394
:1008D00002E06FF0010253101AEB06004CEB0851D6
:1008E00010EB0A0041EB0B01BDE8F04D00F073B8CE
:1008F000C1F30A52C1F3130140F2FF3341F48011F6
:100900009A4202DA00200146704740F233439A428D
:10091000A2F2334202DC524200F03BB800F02AB8A7
:1009200030B5041E71F1000404DB4FF00044404276
:1009300064EB0101141E73F1000405DB1C464FF04B
:100940000043524263EB0403994208BF904230BD1A
:10095000064C074D06E0E06840F0010394E807000C
:1009600098471034AC42F6D3FFF74EFD70450000B7
:1009700090450000202A04DB203A00FA02F1002012
:1009800070479140C2F1200320FA03F319439040CD
:100990007047202A04DB203A21FA02F00021704738
:1009A00021FA02F3D040C2F12002914008431946D7
:1009B0007047202A06DBCB17203A41FA02F043EABF
:1009C000E07306E041FA02F3D040C2F12002914008
:1009D00008431946704710B5141E73F1000408DA75
:1009E000401C41F1000192185B411A4301D120F0F3
:1009F000010010BD2DE9F04D92469B4611B1B1FAB0
:100A000081F202E0B0FA80F220329046FFF7B2FFA6
:100A100004460F4640EA0A0041EA0B0153465A4693
:100A2000084313D0114653EA010019D0C8F140021F
:100A30005046FFF7AEFF05460E4650465946424621
:100A4000FFF798FF084305D0012004E0204639460F
:100A5000BDE8F08D0020054346EAE0762C4337439D
:100A60000A986305E40AA0EB08000022FD0A44EAA4
:100A700047540A3002D500200146E9E70105101964
:100A80006941DDE9084500196941BDE8F04DA2E77B
:100A90002DE9F84300250121484C2E464FF4807083
:100AA0002B46AC464FEA010700F1804202F5C042F6
:100AB000D2F80080B8F1010F09D1D4F8048318EA04
:100AC000010F04D0C2F800C012680D430092001D4F
:100AD00049005B1C80B2082BE6D339480168012924
:100AE00007D1C0F800C000680090364845F00045C6
:100AF0000668DFF8D49015F00F0F1CBF4FF0010807
:100B0000002417D018EA050F0FD0A00000F1804193
:100B100001F5C041D1F81005D1F81015C0F304203B
:100B200059F82420C1F301419047641C4FEA48085A
:100B3000082CE7D315F0004F14BF0024BDE8F8835C
:100B400009EB040090F95810B1F1FF3F20D090F864
:100B5000581021F0C00009EB000292F9382059F832
:100B600022C0BCF1000F13D0890907FA00F58200FA
:100B700002F1A042D2F800373542C3F3014302D05C
:100B8000022B02D004E0032B02D1032905D0E04759
:100B9000641C062CD4D3BDE8F883022B14BF0223B7
:100BA0000323D2F8005725F44035C2F80057D2F895
:100BB000005745EA0343C2F80037E8E70060004009
:100BC0007C6100401005005040D900200D4982B0E2
:100BD000886601680091436982690BA1002000F0DA
:100BE00003FB0F48401EB0F1FF3FFBDCBFF34F8F0C
:100BF0000C4801680C4A01F4E06111430160BFF345
:100C00004F8FFEE70000002050433A202578204C0B
:100C1000523A2025782052303A20257800000000F2
:100C20009F8601000CED00E00400FA05FE48D0F8B4
:100C30000411002908BF70472DE9F04300252DED70
:100C4000028B85B0C0F8045101260660F74C207A6B
:100C5000401C2072F648D0F80011002904BFD0F8DB
:100C6000041100291DD0C0F80051C0F80451F14909
:100C700009680091009A11F4006F4FF0030102F42B
:100C8000805203D0002A08BF022102E0002A08BFD8
:100C900031466172A18A618294ED180A84ED170AC7
:100CA000A672D0F80811F2EE048A9FEDE38A0029BB
:100CB0001CBFC0F8085166716ED1A07A18B1A08A25
:100CC0006082A57268E0B4F916000028B4BF00275E
:100CD00087B22078012808BF47F4804727D0022830
:100CE00008BF47F4004722D0032814BF042847F464
:100CF00040471CD04FF00009D0484FF0EE0800905C
:100D000043464A46CE49484600F06EFA8DF81060D8
:100D10009DF81000CDF8008072B69DF8100030B13B
:100D2000C82002F02BFE9DF810000028F8D1678241
:100D30002178B4F9160001297ED002297DD003293B
:100D40007CD0042904BF94ED140A20EE280A1DD09B
:100D50004FF00008B9484FF48D7700903B4642466B
:100D6000B749404600F040FA8DF80C609DF80C0041
:100D7000009772B69DF80C0030B1C82002F0FEFD5D
:100D80009DF80C000028F8D1B0EE480A84ED170A4F
:100D900084ED180A608AA082607A2070E0690328D6
:100DA0001BD94FF00008A7A04FF40F7700903B46E7
:100DB0004246A349404600F017FA8DF80C609DF8B2
:100DC0000C00009772B69DF80C0030B1C82002F0FC
:100DD000D5FD9DF80C000028F8D1E0699C4B00EB94
:100DE00080219C4F01EBC10103EB410357F8201018
:100DF000628A23F81120491C47F8201042F209406A
:100E0000814220D34FF000088EA040F24629009086
:100E10004B4642468A49404600F0E6F98DF80C60A0
:100E20009DF80C00CDF8009072B69DF80C0050B102
:100E3000C82002F0A3FD02E008E010E016E09DF8F3
:100E40000C000028F4D1607920BB18E000EE100AF5
:100E5000D4ED160AB8EEC00A20EE200A96E700EE9E
:100E6000100AD4ED150AB8EEC00A05E000EE100A2B
:100E7000D4ED140AB8EEC00A20EE200A86E794EDFD
:100E80000D0AD4ED170AB8EE400AF4EEC00AF1EEEE
:100E900010FA02DBE07900286CD0E06947F82050B6
:100EA00094ED170AC0EE280A94ED190A30EE800A74
:100EB00084ED190A217A0A2931D3D4ED0B0AB4EE54
:100EC000E00AF1EE10FAD8BFF0EE400AC4ED0B0ACA
:100ED000D4ED0A0AB4EEE00AF1EE10FAC8BFF0EE63
:100EE000400AC4ED0A0AE089012898BF84ED0C0A83
:100EF0000BD900EE900AB8EE601AC0EE010A94ED2C
:100F00000C0A30EE800A84ED0C0A814207D384ED8E
:100F1000090A84ED0C8AA67084ED198A2572207B5B
:100F200002F07EFF002802BF05B0BDEC028BBDE8D9
:100F3000F083044641484FF4A27500902B462246A8
:100F40003F49002000F050F98DF804609DF804003E
:100F5000009572B69DF80400002806D0C82002F063
:100F60000DFD9DF804000028F8D105B0BDEC028B02
:100F7000BDE8F083E07A18B10E2002F0EBFEE572D6
:100F80006671E069218A57F82000884288D30E20D4
:100F900002F0E0FEE672E069DFF8BC9047F820500E
:100FA0002062401CA9FB00214908A1EB81010844F3
:100FB000E06103281BD94FF0000822A040F25F2710
:100FC00000903B4642461E49404600F00DF98DF820
:100FD0000C609DF80C00009772B69DF80C0030B1C3
:100FE000C82002F0CBFC9DF80C000028F8D11B496A
:100FF000E069095CA1B3401CA9FB00214908A1EBF1
:1010000081010844E061032839D94FF000080DA0A0
:1010100040F2692700903B4642460949404600F0AD
:10102000E3F88DF80C601CE0007000400000002028
:1010300000600040100500500000000084430000E4
:10104000242300002E2E5C6D61696E2E630000006B
:10105000B4000020A8000020ABAAAAAA1800002013
:101060000DE09DF80C00009772B69DF80C0030B1B1
:10107000C82002F083FC9DF80C000028F8D16670AF
:101080006571A07900283FF40BAFA5714FF0FF30D8
:10109000606305E72DE9F0471D4E04468846307829
:1010A0001546002808BF00F097FB04EB440006EB50
:1010B000C00000F14807866DD0F8549000244E45DA
:1010C00011D9B868841BA54298BF2C46786822467F
:1010D00081194046FFF706FAB8682D1B2644A04444
:1010E000B04208BF0026A9EB0600854288BF05462E
:1010F0003DB178682A4681194046FFF7F3F92C4440
:101100002E44002C18BF3E612046BDE8F087000049
:10111000F0ED002070B5084B14460D461B780646CE
:10112000002B08BF00F058FB224629463046BDE898
:10113000704000F003B80000F0ED00202DE9F04110
:101140001546284A00EB400002EBC00000F11804ED
:10115000C06A38B101281ED002283CD0002528469C
:10116000BDE8F0812269E06882429DBFA368181A39
:101170001044101A401EA842F0D3E7688846A068C1
:10118000C61BB54219D260682A463844FFF7AAF94F
:101190007819E060E3E72269E06882429DBFA368B6
:1011A000181A1044101A401EA84238BF0546884637
:1011B000E768A068C61BAE42E5D86068324638448E
:1011C000FFF790F9AF1B08EB06013A466068FFF79E
:1011D00089F9E760C3E72A46204600F0CAFB0546C6
:1011E000BDE70000F0ED00200FB408B504A90091A0
:1011F0006A46039900F004F801B05DF814FB0000A2
:101200002DE9F04FADF2344D804602A8CDF8180418
:1012100000274FF48060DFF8C89216460C46CDF8E0
:1012200020744FF0080ACDF82884CDF82474CDF846
:101230001C0400BF14F8011B002900F03981252986
:1012400004BF002001210BD00DF5836000F072FB7C
:10125000DDF824040028EDDA0DF2344DBDE8F08FFE
:101260002278232A08BF40F008000ED02B2A08BF9E
:1012700040F0040009D02D2A08BF40F0010004D03E
:10128000302A08BF40F0020002D1641C0029E7D1D7
:1012900000252178A1F130020A2A07D205EB850248
:1012A00001EB4201A1F13005641CF2E70023CAB250
:1012B0002E2A08BF641C0CD12178A1F130020A2A21
:1012C00007D203EB830201EB4201A1F13003641C5E
:1012D000F2E76C2914BF682914F8011BF9D07029B2
:1012E00073D008DC252971D0582970D0632909D022
:1012F000642910D0DAE073296AD0752969D0782979
:1013000065D0D3E03068011D316001780DF5836050
:1013100000F010FBCAE031680A1D326009680DF563
:101320008362CDF80C34CDF81024CDF80814CDF834
:1013300014040029B4BF484208464FF0010B0A28A4
:1013400009DB00BF89FB00108110A1EBE0700BF1FD
:10135000010B0A28F6DA18465B4588BF83464DB173
:10136000DDF808040028A4BFDDF8140410F0040F11
:1013700018BF6D1EDDF8140410F0020F00D09BB1F1
:10138000DDF8140410F0010F0ED15DB90CE020213E
:101390006D1EDDF8100400F0CDFADDF824040028FD
:1013A00071DB0DB1AB45F2D3DDF8240400287DDB01
:1013B000DDF8080400280DDA4042CDF808042D219C
:1013C000DDF8100400F0B6FA0EE05DE069E040E000
:1013D00049E034E0DDF8140410F0040F08D02B21AC
:1013E000DDF8100400F0A6FADDF8240400285DDB27
:1013F000DDF8140400F00300022804BFDDF80C043B
:10140000002810D16DB90EE04FF03001A5F10105B3
:10141000DDF8100400F08EFADDF82404002845DB26
:101420000DB1AB45F0D3DDF814040A22CDE900502C
:10143000DDF80C34DDF80814DDF810042EE0316816
:101440000A1D32600968CDE900500A220DF583605B
:1014500024E031680A1D32600968CDE9005010228D
:101460000DF583601AE03068011D3160D0F800503E
:1014700015F8011B39B10DF5836000F05BFADDF85A
:1014800024040028F4DA11E030680823011D3160DB
:101490000168CDE900A710220DF5836000F0D2F9B4
:1014A00004E025210DF5836000F044FA641CCFE6CA
:1014B000DDF824040028DCBF0DF2344DBDE8F08FC8
:1014C000DDF8200420B1024602A94046FFF722FEC3
:1014D000DDF82014DDF824040844CDF82404BBE62C
:1014E0006766666601488068004700000CD90020E6
:1014F0000148C068004700000CD900202DE9F05FCA
:1015000028480027C0F80071102227493846FFF705
:10151000C1FD06003D4608BFBDE8F09FDFF888A08A
:10152000224C4FF0020B4FF001080AF1100900BFE6
:101530001AF80500217821B101290AD0022926D004
:1015400020E0022808BF67601CD100BF84F800803B
:1015500018E01F2808BF84F800B013D003280BD070
:10156000022808BF67600DD0616809F80100481CB7
:1015700000F00F00606005E0A26812B10C486168DD
:10158000904727706D1CB542D2D3BDE8F09F80F024
:101590002001606809F80010401C00F00F00606036
:1015A000D4E7000000400140EAD800206C00002091
:1015B000FAD8002070B453485349012400780A1D1A
:1015C000131D4FF0000C062804BF0D7815F00F0F07
:1015D00008D1157805F0F005302D04BF1D7815F001
:1015E000F00F06D0062804BF0D7815F00F0F4AD172
:1015F00040E04648016821F08071016044494FF0A5
:10160000030008604FF08040C0F80CC1C0F810C162
:101610004048016841F470010160BFF34F8FBFF390
:101620006F8F4FF01025D5F80C023B4910F0010FD9
:101630003A4A3B4B3B4818BF1C6034D00468002C2E
:10164000FCD0D5F80C4224F00104C5F80C42046823
:10165000002CFCD0C3F800C00368002BFCD0BFF303
:101660004F8F086800F4E06040EA02000860BFF3B2
:101670004F8FFEE7157805F0F005302D04BF1D787B
:1016800015F0F00FBAD0062804BF087810F00F0F3D
:10169000BED1107800F0F000302804BF187810F0A8
:1016A000F00FB5D1AEE7D5F8006216F0004F06BFD7
:1016B000D5F8006216F0004F1C601ED00468002CA4
:1016C000FCD04FF01506C5F800620468002CFCD071
:1016D000C5F804620468002CFCD0C3F800C003689D
:1016E000002BFCD0BFF34F8F086800F4E06040EAA5
:1016F00002000860BFF34F8FFEE70C490A480860FC
:1017000070BC7047E00F00F0E40F00F0FCED00E06B
:10171000A005004088ED00E00CED00E00400FA05B3
:1017200004E5014000E401400090D003A400002043
:101730002DE9F05F0026DFF848A0104D34464FF445
:10174000A0774FF48038B146AAF1080B07EB84006C
:1017500080B2295861B1D5F8042308FA04F10A428D
:1017600006D045F800905BF826205AF826109047DE
:10177000641C042CEAD3BDE8F09F00000080004008
:10178000980000202DE9F05F0126DFF848A0104DF9
:1017900000244FF4A0774FF48038A146AAF1080B3B
:1017A00007EB840080B2295861B1D5F8042308FA08
:1017B00004F10A4206D045F800905BF826205AF85A
:1017C00026109047641C042CEAD3BDE8F09F00006B
:1017D000009000409800002010B5124C022012A189
:1017E0002061C4E905011349E1614FF4A25121626E
:1017F0000021A16261620CA2A264E062A4F1100265
:10180000E26410222265A1656165E0650AA00BA172
:101810000068C4F80700204600F0ECF82020A07112
:1018200010BD0000F0ED00205465726D696E616CB2
:1018300000000000A0D900205254540053454747EF
:10184000455200002DE9F84F0126DDE90A5B90467C
:10185000824699460C4608463746414505D300BFA7
:10186000B0FBF8F07F1C4045FAD2B94588BF1F464F
:101870001BF0010F19D1C5B11BF0020F04D0B9F153
:10188000000F08BF302000D0202000900BE0504611
:101890006D1E009900F04EF8DAF80C000028B8BF71
:1018A000BDE8F88F0DB1AF42F1D3DAF80C00002893
:1018B000B8BFBDE8F88F00BFB9F1010F96BFB4FB08
:1018C000F6F0A9F10109404528BF06FB08F6F3D25E
:1018D000DFF85C90B4FBF6F000FB164419F800103A
:1018E000504600F027F8DAF80C00002803DBB6FBBE
:1018F000F8F6002EEED11BF0010F14BF002DBDE84D
:10190000F88F10E04FF020015046A5F1010500F0DE
:1019100011F8DAF80C000028B8BFBDE8F88F002DE8
:1019200008BFBDE8F88FBD42ECD8BDE8F88F0000D5
:101930005445000010B50446D4E90130421C9342DE
:1019400005D323681954A260E068401CE060D4E924
:101950000102824218BF10BD21682069FFF7DAFB3F
:10196000A168884219BF4FF0FF30E0600020A060FE
:1019700010BD2DE9F047C4681746894606464FF06A
:1019800000083069A0428FBF001B201AB168081AF6
:10199000451EB068001BA84298BF0546BD4228BF3F
:1019A0003D4670682A4620444946FEF79BFDB068D4
:1019B0007F1B2C44A844A944A04208BF0024F46023
:1019C000002FDED14046BDE8F08700000FB4084B81
:1019D00010B504A902AA039800F0E6F8044602A98B
:1019E000002000F078FC204610BC5DF814FB0000DD
:1019F000D72200000A6802608B88838091F806C0B5
:101A000080F806C0704702E008C8121F08C1002A0B
:101A1000FAD170477047002001E001C1121F002A6F
:101A2000FBD170472DE9FF5F82B00021DDE9043072
:101A3000020DDDF840B0034318D044F61050A2F276
:101A4000FF3242431514119801281FD0A5EB0B005B
:101A5000401C5FEA000A4FF000064E4FDFF8389155
:101A6000B046504615D5CAF1000413E01198012480
:101A70004AA3012801D16FEA0B010298119AC0E92B
:101A80000031C0E9024206B0BDE8F09FCBF1000092
:101A9000DFE704460021404A491842EB0450CDE9F3
:101AA000001012E0E00707D032463B464046494668
:101AB000FEF73DFE8046894632463B4610461946B3
:101AC000FEF735FE06460F466410002CEAD1DDE92C
:101AD0000401DDE90023BAF1000F06DAFEF727FE64
:101AE00042464B46FEF723FE05E0FEF792FE4246D5
:101AF0004B46FEF78EFE04460E460022284BFEF7AC
:101B00000FFF03D84FF0FF30014607E00022254BBE
:101B100020463146FEF764FDFEF7EAFE102409E098
:101B2000002C0ADB0A220023FEF729FD039B30323A
:101B30001A55641E50EA0102F2D1641C039AC4F1E2
:101B400011031444119A012A03D0012208430DD134
:101B50000AE0084304D000204FF0110B119072E707
:101B6000A3EB0B056D1E0DE05B4504DD4FF000029D
:101B700005F1010504E003DA4FF00002A5F10105CB
:101B8000002AECD002981199C0E90231C0E9004561
:101B900079E70000000014400000F03F3000000032
:101BA0000000F0430000E03F2DE9FF4F95B09B4659
:101BB0008946064600250FE2252877D100242746CE
:101BC000F84A0121059400E0044316F8013F203B48
:101BD00001FA03F01042F7D130782A2811D06FF0C3
:101BE0002F033078A0F13002092A16D8059A44F064
:101BF000020402EB820203EB42021044761C0590C1
:101C0000EFE759F8042B0592002A03DA504244F416
:101C10000054059044F00204761C30782E2816D12A
:101C200016F8010F44F004042A280DD06FF02F029B
:101C30003078A0F13003092B09D807EB870302EBBA
:101C40004303C718761CF3E759F8047B761C3078F9
:101C50006C280FD006DC4C2817D068280DD06A28D5
:101C600014D104E0742810D07A280FD10DE044F488
:101C700000140AE044F4801401E044F44014727843
:101C8000824202D104F58014761C761C30786628D6
:101C90000BD013DC582877D009DC002875D04528F4
:101CA000F6D04628F4D047281AD19DE118E06328E1
:101CB00035D0642879D0652812D195E1702873D089
:101CC00008DC6728F1D069286FD06E280DD06F2806
:101CD00006D1B5E073282CD0752875D0782874D03B
:101CE0005A46179990476D1C75E1C4F302500228BB
:101CF00009D003280DD0D9F8001004280DD00D60AC
:101D000009F1040967E1D9F80010EA17C1E90052A6
:101D1000F6E7D9F800100D80F2E70D70F0E719F83A
:101D2000041B8DF8001000208DF80100EA46012008
:101D300003E059F804AB4FF0FF3061074FF00001AA
:101D400002D40DE008F101018846B9420FDA80455E
:101D5000F8DB1AF808100029F4D108E008F10101B5
:101D600088468142FADB1AF808100029F6D1059856
:101D70005B46A0EB080721463846179A00F094FA14
:101D8000284400EB080507E04DE029E10DE01AF8D2
:101D9000010B5A4617999047B8F10108F7D25B46F4
:101DA00021463846179A13E142E00A220092C4F312
:101DB00002524FF0000A022A08D059F804CB032A35
:101DC0004FEAEC710AD00DE029E02AE009F10701A1
:101DD00021F00702F2E802C1914609E00FFA8CFCFB
:101DE0004FEAEC71042A03D14FFA8CFC4FEAEC71F4
:101DF000002907DA0A460021DCF1000C61EB020140
:101E00002D2202E0220504D52B228DF80420012288
:101E100003E0E20701D02022F7E7904659E00A21CB
:101E200002E010220DE010214FF0000A00910BE0BB
:101E300010224FF0000A44F004040827009203E047
:101E400008224FF0000A0092C4F30252022A05D081
:101E500059F804CB0021032A08D009E009F1070151
:101E600021F00702F2E802C1914605E01FFA8CFC5E
:101E7000042A01D10CF0FF0C4FF00008220728D5EE
:101E8000702806D0009B83F0100353EA0A0305D0A4
:101E90000EE040228DF80420012208E05CEA0102F5
:101EA00006D030228DF804208DF8050002229046DD
:101EB000009B83F0080353EA0A030AD15CEA01029B
:101EC00001D1620705D530228DF804204FF00108BA
:101ED0007F1E582804D034A003900EA802900DE075
:101EE00036A0F9E753466046009AFEF748FB844661
:101EF0000398825C0298401E029002705CEA010026
:101F0000F0D1029806A9081A00F1200A600702D54C
:101F100024F4803400E00127574502DDA7EB0A00D6
:101F200000E0002000EB0A01009005984144401AAF
:101F30000590E00306D45B462146179A059800F009
:101F4000B3F90544002706E001A85A46C05D179979
:101F500090476D1C7F1C4745F6DBE0030CD55B46C4
:101F60002146179A059800F09FF9054404E03020B7
:101F70005A46179990476D1C0099481E00900029F9
:101F8000F5DC08E0029802995A460078491C029153
:101F9000179990476D1CBAF10001AAF1010AF1DC12
:101FA00065E100000928010030313233343536371D
:101FB0003839616263646566000000003031323395
:101FC0003435363738394142434445460000000035
:101FD00000F058F90544761C307800287FF4ECAD09
:101FE00019B02846BDE8F08F620700D4062709F132
:101FF000070222F0070CFCE80223E14603F0004848
:102000005FEA080C02D00FF2702C0DE05FEA045C6E
:1020100002D50FF2682C07E05FEAC47C02D00FF211
:10202000602C01E0AFF2700C4FF0FF3823F000435A
:10203000CDF850C065280CD006DC452809D04628CC
:102040001DD047283DD13DE0662818D067287ED1B5
:1020500038E00021112F01DB112000E0781CCDE9D0
:10206000000106A90EA8FFF7DDFCDDE90F010E9ABD
:1020700003910021009207F1010A04914DE04FF015
:1020800000400097CDE9011006A90EA8FFF7CAFC91
:10209000DDE90F0203920E9B11990022DDF80CA0DE
:1020A0000093049211B9791C00EB010AB7EB0A0006
:1020B00004D4C0F1FF3007F1010A0490AAEB070035
:1020C000019044E0012F00DA01270021112F01DDEA
:1020D000112000E03846CDE9000106A90EA8FFF75F
:1020E000A1FCDDE90F010E9A0391002104910092F9
:1020F000BA4621070CD40399514500DA8A46BAF151
:10210000010F05DD009AAAF10101515C302908D0C8
:10211000B84202DA10F1040F06DA0121CDE901100C
:1021200015E0AAF10101E9E7002805DC0499014462
:102130000491AAEB000102E0411C514500DD8A46F2
:102140000499401A401C01904FF000400290200773
:1021500004D40198504501DBCDF8048000208DF8AF
:102160004F0002980DF14F07B0F1004F25D02B2002
:102170000E9002984FF0020800280CDA40420290BC
:102180002D200E9007E00A210298FEF7E2F9303187
:10219000029007F8011DB8F10001A8F10108F2DC76
:1021A00002980028EFD1791E0E980870307800F060
:1021B000200040F0450007F8020D12A8C01B00F1F6
:1021C00007081498007800B1012000EB0A0101987B
:1021D00001EBE07105984144401A401E0590E00370
:1021E00006D45B462146179A059800F05DF8054431
:1021F0001498007818B15A46179990476D1CE0035F
:1022000024D55B462146179A059800F04DF8054401
:102210001CE00498002807DBDDE90301884203DDA8
:102220000098405C179901E0179930205A46904772
:10223000049805F10105401C04900198401E01908E
:1022400004D12E205A46179990476D1CBAF100010F
:10225000AAF1010ADDDC05E017F8010B5A461799CF
:1022600090476D1CB8F10001A8F10108F4DC5B4651
:102270002146179A0598ABE62D0000002B000000C0
:10228000200000002DE9F041044600251E461746B7
:10229000880404D405E039462020B0476D1C641E34
:1022A000F9D52846BDE8F0812DE9F0410446002526
:1022B0001E469046C80301D5302700E02027880439
:1022C00004D505E041463846B0476D1C641EF9D57B
:1022D0002846BDE8F0810A68531C0B6010707047F7
:1022E00030B583B00C46009205460B4602460DA160
:1022F0000020FEF779FF01208DF804009DF804000E
:10230000009472B69DF80400002804BF03B030BDED
:10231000C82001F033FB9DF804000028F8D103B079
:1023200030BD00006572723A202578206C696E65B8
:102330003A2025782066696C653A202573000000F4
:1023400072B602480168491C01607047A000002075
:1023500003490868401E086018BF704762B670479E
:10236000A0000020084910B5886008490320C1F882
:10237000000707490120C1F804030321142001F0DC
:102380000CFB002010BD00006C0000202C00005051
:10239000004001402DE9F04385B0814602201746F8
:1023A0000D468DF80800012202A94846FEF7B2FE4C
:1023B0000326012818BF8DF8006007D00122694666
:1023C0004846FEF7A7FE0128F8D161E00024002F5F
:1023D00088BF4FF01F0845D9285D02281CBF03287D
:1023E0001F2813D08DF808004FF0010202A94846BB
:1023F000FEF790FE012832D08DF800600122694678
:102400004846FEF787FE0128F8D141E08DF80880A4
:10241000012202A94846FEF77DFE012809D08DF869
:102420000060012269464846FEF774FE0128F8D193
:102430002EE0285D012280F020008DF8080002A91E
:102440004846FEF767FE012809D08DF8006001229A
:1024500069464846FEF75EFE0128F8D118E0641C84
:10246000BC42B9D38DF80860012202A94846FEF7A4
:1024700051FE012811BF8DF80060002005B0BDE8B5
:10248000F083012269464846FEF744FE0128F8D150
:1024900005B01120BDE8F08310B5064C20688078A7
:1024A00000F0C6FC00281CBF012010BD00202060E9
:1024B00010BD000074EE0020014900200860704744
:1024C00074EE002070B5084D0446286848B944B140
:1024D000A078211D00F088FD002802BF00202C609C
:1024E00070BD012070BD000074EE0020F7B5164CE1
:1024F00006461546206820B35EB19DF80410038897
:102500004A199A4205D825B101F00F012944102932
:1025100002D903B00220F0BD8078022100F0C8FD8E
:10252000206801AA0121807800F0CAFD48B920681E
:1025300032462946807800F06DFD002804BF03B0C4
:10254000F0BD012003B0F0BD74EE002070B5184D51
:1025500014462A6812B349B112880319934205D868
:1025600024B100F00F022244102A01D9022070BDCC
:1025700028712246681DFDF7B5FF28680121807883
:1025800000F096FD28682A1D611C807800F098FDF7
:10259000002804BF00204FF6FF7101D0012070BD5C
:1025A00000BF401C80B28842FAD3002070BD0000FA
:1025B00074EE002010B5064C2068407800F038FC1E
:1025C00000281CBF012010BD0020206010BD0000AD
:1025D00068EE0020014900200860704768EE002086
:1025E00070B5234C0546206828B925B16878291DA7
:1025F00000F0FAFC08B1012070BD25602878102891
:1026000033D2DFE800F0080813131E1E29290D0D30
:10261000181823232D2D8120208141F2883023E0BA
:1026200040F20110208141F288301DE0812020819C
:1026300042F2107018E040F20110208142F2107056
:1026400012E0812020814CF250300DE040F2011068
:1026500020814CF2503007E081202081054803E0C2
:1026600040F20110208103486060002070BD00002E
:1026700068EE0020A08601002DE9F84316460428E4
:1026800028BFFF2204D23EA2126800921DF800204B
:102690003C4FD7F80080B8F1000F6DD0002E18BF66
:1026A000FF2A04D000291CBF0129022903D04FF0C2
:1026B0000200BDE8F88335684B2D34BF4B242C460F
:1026C000304BB3F808905B68A9F1010C21B10129E6
:1026D00010D002291ED036E0A4F14B000CFB00F014
:1026E000B0FBF3F080B203FB00F1B1FBFCF101F1B0
:1026F0004B0428E0A4F14B000CFB00F000EB53006E
:10270000B0FBF3F080B203FB00F1B1FBFCF101F18F
:102710004B0418E0A4F14B000CFB00F0B0FBF3F00D
:1027200080B203FB00F1B1FBFCF101F14B048145E8
:1027300088BFA54207D9401C80B203FB00F1B1FB62
:10274000FCF101F14B04C0F3012141EA02118DF8C3
:1027500000108DF8010098F80100012100F0A8FC9C
:1027600038686A460221407800F0AAFC002802BFBF
:1027700000203460BDE8F8830120BDE8F883000044
:102780000001060768EE0020FFF796BE08B500209E
:102790008DF800000F48FFF795FE18B10EA2DD215D
:1027A000FFF79EFD01220F216846FFF79FFE18B13B
:1027B00009A2E021FFF794FDFFF76EFE18B106A213
:1027C000E321FFF78DFD9DF80000012818BF0020D0
:1027D00008BD0000644500002E2E5C2E2E5C2E2EBF
:1027E0005C736F757263655C656570726F6D2E6387
:1027F0000000000008B500208DF800000F48FFF72A
:1028000061FE18B10EA2F321FFF76AFD01222F210C
:102810006846FFF76BFE18B109A2F621FFF760FDCD
:10282000FFF73AFE18B106A2F921FFF759FD9DF80E
:102830000000012818BF002008BD0000644500000A
:102840002E2E5C2E2E5C2E2E5C736F757263655C73
:10285000656570726F6D2E630000000010B5044650
:102860001848FFF72FFE18B117A2B821FFF738FD5F
:10287000042200212046FFF739FE18B112A2BB2125
:10288000FFF72EFD04220521201DFFF72FFE18B1B2
:102890000DA2BD21FFF724FD04220A2104F1080046
:1028A000FFF724FE18B108A2BF21FFF719FDFFF7BB
:1028B000F3FD002808BF10BD03A2BDE81040C221EF
:1028C000FFF70EBD644500002E2E5C2E2E5C2E2ED2
:1028D0005C736F757263655C656570726F6D2E6396
:1028E0000000000010B504461848FFF7EBFD18B1D2
:1028F00017A2CA21FFF7F4FC042220212046FFF78B
:10290000F5FD18B112A2CD21FFF7EAFC04221B212C
:10291000201DFFF7EBFD18B10DA2CF21FFF7E0FC62
:1029200004222A2104F10800FFF7E0FD18B108A2F3
:10293000D121FFF7D5FCFFF7AFFD002808BF10BD80
:1029400003A2BDE81040D421FFF7CABC64450000D3
:102950002E2E5C2E2E5C2E2E5C736F757263655C62
:10296000656570726F6D2E630000000010B504463F
:102970000E48FFF7A7FD18B10DA2A921FFF7B0FC83
:10298000022230212046FFF7B1FD18B108A2AC2188
:10299000FFF7A6FCFFF780FD002808BF10BD04A2CA
:1029A000BDE81040AF21FFF79BBC0000644500006C
:1029B0002E2E5C2E2E5C2E2E5C736F757263655C02
:1029C000656570726F6D2E630000000010B50446DF
:1029D0001348FFF777FD18B112A29721FFF780FC8B
:1029E000022234212046FFF781FD18B10DA29A2161
:1029F000FFF776FC02223221A01CFFF777FD18B109
:102A000008A29C21FFF76CFCFFF746FD002808BFD9
:102A100010BD04A2BDE810409F21FFF761BC00007B
:102A2000644500002E2E5C2E2E5C2E2E5C736F757E
:102A30007263655C656570726F6D2E6300000000E7
:102A400001B50D48FFF73EFD18B10CA26521FFF757
:102A500047FC022269463220FFF778FD18B107A231
:102A60006821FFF73DFCFFF717FD18B103A26B21AA
:102A7000FFF736FC002008BD644500002E2E5C2EBA
:102A80002E5C2E2E5C736F757263655C656570726B
:102A90006F6D2E630000000001B50D48FFF712FDB9
:102AA00018B10CA27621FFF71BFC022269463420E4
:102AB000FFF74CFD18B107A27921FFF711FCFFF7D2
:102AC000EBFC18B103A27C21FFF70AFC002008BD33
:102AD000644500002E2E5C2E2E5C2E2E5C736F75CE
:102AE0007263655C656570726F6D2E630000000037
:102AF00001B51E482DED040BFFF7E4FC18B11CA234
:102B00004821FFF7EDFB042269460020FFF71EFD78
:102B100018B117A24E21FFF7E3FB042201A90520FB
:102B2000FFF714FD18B112A25121FFF7D9FB0422BF
:102B300002A90A20FFF70AFD18B10DA25421FFF7E0
:102B4000CFFB012204A90F20FFF700FD18B108A256
:102B50005721FFF7C5FBFFF79FFC18B104A25A21CC
:102B6000FFF7BEFB05B0002000BD0000644500007B
:102B70002E2E5C2E2E5C2E2E5C736F757263655C40
:102B8000656570726F6D2E630000000001B51E4810
:102B90002DED040BFFF796FC18B11CA22221FFF7C4
:102BA0009FFB042269462020FFF7D0FC18B117A232
:102BB0002821FFF795FB042201A91B20FFF7C6FC83
:102BC00018B112A22B21FFF78BFB042202A92A20A5
:102BD000FFF7BCFC18B10DA22E21FFF781FB0122EB
:102BE00004A92F20FFF7B2FC18B108A23121FFF78A
:102BF00077FBFFF751FC18B104A23421FFF770FBFB
:102C000005B0002000BD0000644500002E2E5C2EA3
:102C10002E5C2E2E5C736F757263655C65657072D9
:102C20006F6D2E630000000001B50D48FFF74AFCF0
:102C300018B10CA28721FFF753FB0222694630200E
:102C4000FFF784FC18B107A28A21FFF749FBFFF7C1
:102C500023FC18B103A28D21FFF742FB002008BD21
:102C6000644500002E2E5C2E2E5C2E2E5C736F753C
:102C70007263655C656570726F6D2E6300000000A5
:102C80001E4901280A6805D0022804BF4B79002B91
:102C90001DD001E0087910B14FF000007047108896
:102CA000174BC0F385101860106803F10403C0F3DC
:102CB000053018601078134A00F03F001060124A87
:102CC0004FF00100106008711048886013E013791C
:102CD000DFF83CC003F03F03CCF8003092880CF1E1
:102CE0000403C2F385121A600A4B4FF005021A6002
:102CF00048710948C8604FF0010070470CD90020A6
:102D00000C3500400835004000350040A92D00007A
:102D10000845004000450040212E000000210B4ADC
:102D2000012805D0022804BF5079022809D002E00A
:102D30001079012801D00020704705480160117109
:102D400002E0044801605171012070470CD9002055
:102D500000350040004500401049086008214FF050
:102D6000E0200022C0F880110D4B1A6000F1030C26
:102D700060238CF80034C0F88012C0F800111021D4
:102D8000C0F88011DFF81CC0CCF80020021D82F8CA
:102D90000034C0F88012C0F8001170470CD9002030
:102DA00000350040004500401B4830B40168002950
:102DB00014BF012300230024184900BFD1F80821C3
:102DC000F2B1D1F81825C1F80841D2B2D0F808C044
:102DD000BCF1000F1CBF057B0CF80520027B521CC8
:102DE000D2B2027390F80DC062450DD2D0F804C083
:102DF000BCF1000F14BF1CF802200022C1F81C25F2
:102E0000002BDBD030BC70470168002904BF30BC08
:102E10007047002030BC08471CD90020003000401B
:102E200002494FF0402000F019B800002CD90020D2
:102E300010B5012806D10220FFF770FF00281CBF43
:102E4000002010BD032010BD0348002101608174E3
:102E500041740174704700002CD900202DE9F00363
:102E60000A68002A18BF01224FF4207500244FF48D
:102E7000017602274FF0010C0B7C012B02D0022BB4
:102E800056D0ABE0D0F81C31002B3DD0C0F81C412F
:102E90000B7B5B1CDBB20B7391F80D8043451CD29E
:102EA000C0F800420B7B91F80D805B1C434538BF96
:102EB000C0F800C207D38B7C032B12BF012BC0F8D4
:102EC0000441C0F8007291F80C804B6813F8083088
:102ED000C0F81C35C0F820C080E0C0F80853D0F816
:102EE000002212F0020F03D0D0F80421002AFBD0F8
:102EF0000C740968002904BFBDE8F00370474FF067
:102F00000000BDE8F0030847D0F82431002B65D05D
:102F1000C0F82441C0F80853032008740968002948
:102F200004BFBDE8F00370470220BDE8F003084786
:102F3000D0F80831F3B3C0F80841D0F8183591F84B
:102F40000E90D1F8088008F809308B7B5B1CDBB24F
:102F50008B7391F80F80434515D2C0F800428B7BEC
:102F600091F80F805B1C434538BFC0F800C207D3FF
:102F70008B7C032B12BF022BC0F80441C0F80072F7
:102F8000C0F820C02AE0C0F80863D0F8002212F090
:102F9000020F03D0D0F80421002AFBD00C7409687A
:102FA000002904BFBDE8F00370474FF00100BDE801
:102FB000F0030847FFE7D0F824317BB1C0F8244183
:102FC000C0F80863042008740968002904BFBDE83C
:102FD000F00370470320BDE8F0030847002A3FF4E0
:102FE0004BAFBDE8F003704710B50C4601280BD17C
:102FF0000220FFF745FE38B10449207908600449F2
:1030000020680860002010BD032010BD88450040E6
:103010002445004070B5012846D1244C4FF0402093
:103020000B4694F810C0BCF1010F12BFBCF1020FA7
:10303000032070BD4FF00001BCF1040F18BFA17355
:103040004FF0020C84F810C0A260DBB2E3734FF4BF
:103050002172C0F80823C0F82411C0F81C11C0F870
:103060000811C0F80012A27B551C01229D4238BFF6
:10307000C0F8002207D3A37C032B12BF022BC0F899
:103080000411C0F800C2216829B14FF40171C0F8E1
:103090000413026006E002602146FFF7DFFE207C99
:1030A000042801D0002070BD022070BD2CD9002062
:1030B000012804BF01488174704700002CD900200A
:1030C00010B501284FD1294C4FF040200B4694F801
:1030D00010C0BCF1010F12BFBCF1020F032010BDE4
:1030E0004FF00001BCF1030F18BF21734FF0010C2A
:1030F00084F810C06260DAB262734FF42173C0F8D2
:103100000833C0F82411C0F81C11C0F80811C0F829
:103110000012237B5B1C934238BFC0F800C20AD365
:10312000A27C032A18BF012A05D1C0F804114FF070
:103130000201C0F80012227B6168895CC0F81C158E
:10314000216831B14FF42071C0F80413C0F808C0F1
:1031500007E0C0F808C02146FFF780FE207C032866
:1031600001D0002010BD012010BD00002CD900208E
:1031700038B5154D2978002904BF082038BD022430
:1031800068801249A0F2E24091FBF0F0C0F5F160D6
:1031900000F5003000900E48FFF722FA18B10DA29A
:1031A0006E21FFF79DF86A4601212046FFF764FA79
:1031B000041E03D007A27121FFF792F80098A860BF
:1031C000FFF7F8F9204638BD78000020608E9E0495
:1031D000384500002E2E5C2E2E5C2E2E5C736F75F3
:1031E0007263655C6D5F767265672E630000000038
:1031F00010B5FFF7EFF902490120087010BD00007B
:1032000078000020F8B505460F4E40000090307859
:10321000002804BF0820F8BD0C48FFF7E1F918B1F9
:103220000BA28921FFF75CF86A4601210020FFF715
:1032300023FA041E03D006A28C21FFF751F8FFF7F2
:10324000B9F9B5802046F8BD780000203845000067
:103250002E2E5C2E2E5C2E2E5C736F757263655C59
:103260006D5F767265672E630000000038B5400020
:1032700000900C480078002804BF082038BD0A4898
:10328000FFF7AEF918B109A2A021FFF729F8012133
:103290006A460846FFF7F0F90446FFF78BF9204627
:1032A00038BD000078000020384500002E2E5C2E2E
:1032B0002E5C2E2E5C736F757263655C6D5F76722B
:1032C00065672E6300000000D4B000242546FD4849
:1032D000FFF742FDFFF7B8FDFFF756FAFFF756FA82
:1032E000DFF8E493A8B106A8FFF7B8FA0698C9F882
:1032F00038000798C9F83C000898C9F840000698BB
:10330000C9F844000798C9F8480008980125C9F889
:103310004C00FFF76FFA60B1012406A8FFF7E2FA4C
:103320000698C9F838000798C9F83C000898C9F809
:10333000400005A8FFF74AFB04A8FFF717FBBDF8FC
:1033400010104FF6FF70A1F5E162B2F5E16F01D800
:10335000814203D140F6B831ADF81010BDF8141019
:10336000814204BF4AF6EE41ADF81410BDF81610C4
:10337000814204BF44F62060ADF8160099ED0E0AB4
:103380009FEDD21A20EE010ADFEDD10AC0EE801ABD
:103390009FEDD00AD0484FF0030B61EE801AC9EDC3
:1033A000141AD9ED0F1A21EE812AC0EE821A61EEAD
:1033B000801AC9ED151AD9ED101A21EE811AC0EE46
:1033C000811A21EE800A89ED160AC0F800B7C348B9
:1033D0004FF480610160C249C1F800B7091FC1F80C
:1033E00000B74FF0807101604910001F0160C006F6
:1033F0004FF0010AC0F878A0BAA2BCA151A8FEF70C
:10340000E5FAD5B1D9F84400FDF790F807468846AB
:10341000D9F84800FDF78AF805460E46D9F84C0061
:10342000FDF784F841EC100B8DE8E00153EC102B14
:10343000B1A109A8FEF7CAFA19E0D9F83800FDF7DA
:1034400075F807468846D9F83C00FDF76FF8054641
:103450000E46D9F84000FDF769F841EC100B8DE8F5
:10346000E00153EC102BADA109A8FEF7AFFA4FF025
:103470008050026EB2A11BA8FEF7A8FA51AAB4A10F
:103480000020FDF7B1FE09AA9AA10020FDF7ACFECD
:103490001BAA98A10020FDF7A7FEF4B1D9F83800C7
:1034A000FDF744F806460F46D9F83C00FDF73EF814
:1034B00004460D46D9F84000FDF738F841EC100BF2
:1034C0008DE8F00053EC102BA3A13FA8FEF77EFA85
:1034D0003FAA88A10020FDF787FEBDF814000090E8
:1034E000BDF81630BDF81020A4A12DA8FEF76EFA85
:1034F0002DAA80A10020FDF777FEA748FEF732FF36
:1035000000F06CFBD0B10446A4A040F20E45009040
:103510002B462246A4490020FDF766FE8DF80CA03C
:103520009DF80C00009572B69DF80C0030B1C820D3
:1035300000F024FA9DF80C000028F8D100F07AF988
:103540009A4A00219A4800F0D5FCD0B10446994827
:103550004FF4D57500902B46224693490020FDF785
:1035600043FE8DF80CA09DF80C00009572B69DF8F6
:103570000C0030B1C82000F001FA9DF80C000028C2
:10358000F8D132218A4800F001FD024601230021D2
:103590008748CDF800A000F087FC00F0FBFE00F0AB
:1035A00061FEFFF725FEBDF81000FFF7E1FD040006
:1035B00019D07AA040F21D4500902B4622467A4948
:1035C0000020FDF711FE8DF80CA09DF80C00009571
:1035D00072B69DF80C0030B1C82000F0CFF99DF80C
:1035E0000C000028F8D1BDF81400FFF73FFED0B161
:1035F00004466AA040F21F4500902B4622466A49C5
:103600000020FDF7F1FD8DF80CA09DF80C00009551
:1036100072B69DF80C0030B1C82000F0AFF99DF8EB
:103620000C000028F8D1BDF81600FFF7EBFDD0B173
:1036300004465AA040F2214500902B4622465A49A2
:103640000020FDF7D1FD8DF80CA09DF80C00009531
:1036500072B69DF80C0030B1C82000F08FF99DF8CB
:103660000C000028F8D154480068009010F4006F56
:1036700000F4805004D0002808BF4FF0020B02E095
:10368000002808BFD34689F800B04C4800F002FC7F
:10369000DFF82CB14FF48060CBF80000494D4A4E62
:1036A000ABF104070BF104085FF0000499F8010086
:1036B00038B189F807A03E4800F0ECFB89F80140DA
:1036C00084E0A1E030450000000000200000004739
:1036D0009A99193F00247449280000500C050050A5
:1036E00060000050312E312E3000000056455253FC
:1036F000494F4E202573000043414C4942524154EA
:1037000045442052313A252E33662052323A252E36
:1037100033662052333A252E336600004E4F544311
:10372000414C494252412052313A252E33662052B3
:10373000323A252E33662052333A252E3366000066
:1037400020426F6172642049442025580000000027
:1037500025730D0A000000000A0A555345522053F4
:1037600045542052313A252E33662052323A252EC6
:1037700033662052333A252E336600000A526566BE
:1037800073205644443A2025642048493A20256451
:10379000204C4F3A20256400C53F00002E2E5C6D62
:1037A00061696E2E630000002423000001450000C3
:1037B000284500008443000010050050204500000B
:1037C0000805005018000020B4000020D9F820009F
:1037D00005F800A0B9F8101000EB80204A0000EBBB
:1037E000C00006EB40010020FEF7D4FDD9F8200010
:1037F0002C5439684FF40000C90D11F0010F0CBFB3
:10380000CBF80000C8F8000099F8020000281CBF9F
:1038100099F8040000283FF449AF89F802404FF0BE
:10382000040203494FF00000FEF7B4FD3EE700003C
:103830002400002070B54E4886B0002241680191F6
:10384000816802910068039001A90B2000F054F9EF
:103850000124D0B10546474840F26916009033462E
:103860002A4645490020FDF7BFFC8DF810409DF821
:103870001000009672B69DF8100030B1C82000F01C
:103880007DF89DF810000028F8D1002201A90C2035
:1038900000F032F9D0B1054636484FF4B6760090C4
:1038A00033462A4634490020FDF79EFC8DF810402F
:1038B0009DF81000009672B69DF8100030B1C82037
:1038C00000F05CF89DF810000028F8D1002202A951
:1038D0000D2000F011F9D0B1054626484FF4B77617
:1038E000009033462A4624490020FDF77DFC8DF8E0
:1038F00010409DF81000009672B69DF8100030B18F
:10390000C82000F03BF89DF810000028F8D103A96A
:103910000E2000F093F9D0B1054616484FF4B87662
:10392000009033462A4614490020FDF75DFC8DF8CF
:1039300010409DF81000009672B69DF8100030B14E
:10394000C82000F01BF89DF810000028F8D10121D4
:103950000B2000F06FF801210C2000F06BF80D2017
:1039600000F038F80E2000F0DBF906B070BD000062
:1039700014450000844300002423000001B5009892
:10398000002808BF08BD401E009040F2E730FCF759
:103990005BFD00980028F6D108BD4907090E0028F4
:1039A000BDBF00F00F0202F1E02282F8141D00F109
:1039B000E022A8BF82F8001400F01F02012191400C
:1039C0004009800000F1E020C0F88012C0F800112A
:1039D000704700001549014491F9381008290EDBA1
:1039E0004FEA800000F1A040D0F8001721F44031E8
:1039F000C0F80017D0F80017C0F80017704728BFAC
:103A000070474FF001024FEA810000F1804000F55D
:103A1000C040D0F8103523F00103C0F8103502FA89
:103A200001F00349C1F808037047000040D90020A5
:103A300000600040F8B42D4B00251C184FF0010C1D
:103A400094F93820082A24DB02EB030191F8501086
:103A50004FEA9111032902D0012906D007E0244939
:103A600009680CFA00F2114201D1022100E00321A1
:103A7000800000F1A040D0F8002722F44032C0F8C6
:103A80000027D0F8002742EA0141C0F80017F8BC2F
:103A9000704724BFF8BC70474FF48070960006F161
:103AA000804606F5C04600EB8200D6F8107580B25D
:103AB00047F00107C6F8107500F1804000F5C040DE
:103AC000056000680090002904BFF8BC704794F9B5
:103AD000380053F82000002804BFF8BC70470CFAE7
:103AE00002F00449C1F80403F8BC704740D9002033
:103AF00010050050006000402DE9F001DFF8D8C04B
:103B000000250CEB0003012493F9383014EBE37328
:103B100018BF082511D1CE78002E19BF0023082721
:103B200008230E27BB4207D25CF82340B4F1FF3FC5
:103B300007D05B1CBB42F7D304252846BDE8F00143
:103B400070470CEB00085CB288F838404CF8232032
:103B5000002E04BF0CEB030282F85000B4F1FF3FCB
:103B6000EAD08B78820002F1A042002B03BF4B7891
:103B7000002646EA8303D2F8003718BF23F0020379
:103B8000C2F80037CA78E2B10A78A10001F1804199
:103B900001F5C041D1F8103523F4F85323F4403334
:103BA000C1F810354FF4F85303EA00204FF44033C6
:103BB00003EA02421043D1F810251043C1F8100562
:103BC000BBE70CEB0400097890F8502042EA811121
:103BD00080F85010B1E7000040D9002010B5154C16
:103BE00094F85E0000281CBF082010BD4FF0FF3283
:103BF000202104F13800FCF787FC0020B0F101011E
:103C000044F82010082824BF221882F85010401CC5
:103C1000C0B20E28F4D300210620FFF7BEFE0649ED
:103C20004FF00040C1F80403012084F85E0000203A
:103C300010BD000040D90020006000402DE9F001D7
:103C4000344B00251A1892F938C0BCF1FF3F18BF59
:103C5000082516D191F802C0BCF1000F04BF6FF027
:103C6000010382F8383045D0002701263A4608245F
:103C700053F822C0BCF1FF3F07D0521CA242F7D339
:103C800004252846BDE8F001704703EB00084FFA11
:103C900082FC88F838C043F82270002E04BF1A4412
:103CA00082F85000BCF1FF3FEAD04FEA8C0202F1EB
:103CB000804202F5C0420B784C78D2F810C52CF443
:103CC000F85C2CF4981CC2F810C5D2F810C54FF45B
:103CD000F85606EA00264CEA060C4FF4403606EA8F
:103CE00003434FF4801606EA045423434CEA0303CB
:103CF000C2F810354A7801218140012A0CBF064ADA
:103D0000064A11600321800000F1A040C0F80017AE
:103D1000B7E7000040D90020080500500C0500500E
:103D20000B49084490F93800800000F1804101F50A
:103D3000C041D1F8100540F0030040F4F852C1F83A
:103D4000102500BF00BF00BFC1F81005704700007C
:103D500040D900200649084490F838008006000E3B
:103D600000F1804000F5C040012101607047000073
:103D700040D900202DE9F04781460426134D002448
:103D8000DFF84C804FF0010AFEF7DAFA0AFA04F77E
:103D90002F4210D0D8F8040007420CD1D8F80410F4
:103DA0000AFA04F00843C8F8040089F80040002625
:103DB000FEF7CEFA07E0FEF7CBFA26B104F10100D8
:103DC000BD43C4B2E0D13046BDE8F087FFFF0F002D
:103DD00084000020002912BF002A0E2070474FF0F7
:103DE000010303FA00F3C3F3130CBCF1000F04BF8B
:103DF00007207047DFF824C0DCF804C013EA0C0F7A
:103E000004BF08207047C00000F1804000F5F83082
:103E1000C0F81015C0F81425002070478400002059
:103E2000012101FA00F00103090B05D0044949689A
:103E3000084204BF0820704702490860002070470C
:103E40008400002004F501400448017800291CBFCB
:103E500085207047012101700020704784000020F8
:103E600000684FF4A07202EB810110FA81F07047F4
:103E70004FF4A07202EB8102036892B24FF0000C83
:103E800043F802C000684FF4803202FA01F1C0F832
:103E900004137047016801220A604079014A022137
:103EA000115470478C00002070B40468DDF80CC019
:103EB00040F20115D4F800628D4026EA0505C4F8E9
:103EC00000520468D4F800522B43C4F800324FF477
:103ED00080338B40BCF1000FD0F800C014BFCCF889
:103EE0000433CCF80833006800EB8100C0F84025AB
:103EF00070BC70472DE9F041044640791F4F0D46D4
:103F00001646395C00291CBF0820BDE8F081002D51
:103F100004BF1B4901EBC005E97894F90400FFF7E1
:103F20003CFD6179174A6868002E42F8210004BF01
:103F30000720BDE8F0816079134941F820602068CE
:103F40006978D0F8042561F30102C0F804252068DF
:103F5000A978D0F8082561F30102C0F80825206887
:103F60002978D0F8102561F30302C0F81025617993
:103F7000012078540020BDE8F08100008C00002072
:103F800044450000980000209000002000684FF495
:103F90007A42D0F8100522FA00F0484380087047B2
:103FA000006801214160704700680121016070478D
:103FB00000684FF40072D0F8100522FA00F0484370
:103FC00040097047002908BF704710B501781529CE
:103FD00028BF10BDDFE801F0170E181F170B262EA3
:103FE0001717363B4655756882FDC5FCFB0001215D
:103FF000924A9171417882780904C07801EB0221DC
:1040000008448E49486310BD8178407801EB002058
:104010008A49C88110BD8178407801EB002087492A
:10402000088210BD86494FF08070086083490120E6
:10403000087110BD83494FF0807008607F490020EF
:10404000087110BD7D494FF0FF30486310BD7E48B8
:104050000121C160D0F810110029FBD00021C0F867
:10406000101110BD4078012804BF4FF480607549DD
:1040700005D0002806BF4FF48060714910BD08606C
:1040800010BD8178407801EB002084B26F48FFF7C3
:1040900087FF2046FFF76CF86C48FFF785FF204646
:1040A000BDE81040FEF7C0BD8178407801EB0020EC
:1040B00084B22046FFF7A6F82046BDE81040FEF780
:1040C000BFBC8178407801EB002084B22046FFF726
:1040D000CDF82046BDE81040FEF7DEBC5C4A4FF448
:1040E00000011268D20D12F0010F0CBF554A544A5C
:1040F0001160524CD0F801102164D0F80510E16332
:10410000D0F80900A063012094ED101A00EE901A77
:1041100094ED0E0AFEF7ECFCD4ED0E0A9FED4D0A6D
:1041200020EE801ADFED4C0AC0EE811A9FED4B1A8B
:1041300061EE811AC4ED141AD4ED0F1A21EE802A13
:10414000C0EE821A61EE811AC4ED151AD4ED101A70
:1041500021EE800AC0EE801A21EE810A84ED160A53
:1041600010BD364CD0F801102164D0F80510E16381
:10417000D0F80900A063012094ED101A00EE901A07
:1041800094ED0E0AFEF702FDD4ED0E0A9FED310A02
:1041900020EE801ADFED300AC0EE811A9FED2F1A53
:1041A00061EE811AC4ED141AD4ED0F1A21EE802AA3
:1041B000C0EE821A61EE811AC4ED151AD4ED101A00
:1041C00021EE800AC0EE801A21EE810A02E00FE0A3
:1041D00003E023E084ED160A10BD9FED210ABDE83F
:1041E00010400020B0EE401AF0EE400AFEF7CEBCC0
:1041F00017494FF400000968C90D11F0010F0CBFF9
:1042000010490F4908609FED160ABDE810400020D4
:10421000B0EE401AF0EE400AFEF76ABC074CE078B8
:1042200020B10D20FFF7D6FB002004E001210D2076
:10423000FFF700FC0120E07010BD0000000000202E
:104240000C0500500805005000700040204500009B
:1042500004050050000000479A99193F0024744952
:104260000000000070B401239807224DC0F8003010
:10427000D0F800110029FBD04FF0000CC0F800C1AD
:104280001E491D4808601E4803600224001D04608A
:104290001C4903200860081D04601B4803601C497A
:1042A0001A4808601B48C0F800C01B4803601B4840
:1042B0002E68C360D0F810110029FBD0C0F810C1DF
:1042C00017490A68012AFCD016492E6081F800C4FB
:1042D0004FF0E0228021C2F88012C2F80011C0F82D
:1042E00004430360D0F800110029FBD0C0F800C1DE
:1042F00070BC7047407600400007170118750040F9
:1043000010750040F0750040307600401600002027
:104310002C760040F87500400075004000700040A9
:104320000074004007E000E030B5154883B0007B22
:10433000FFF776FD002804BF03B030BD044611A08E
:104340004FF4A27500902B46224611490020FCF73D
:104350004BFF01208DF804009DF80400009572B613
:104360009DF80400002804BF03B030BDC820FFF74B
:1043700005FB9DF804000028F8D103B030BD000013
:10438000000000202E2E5C6D61696E2E630000001F
:10439000242300002DE9F04186B0FFF755FD0124EC
:1043A000D0B105464E484FF4BF76009033462A46BA
:1043B0004C490020FCF718FF8DF804409DF80400DC
:1043C000009672B69DF8040030B1C820FFF7D6FA07
:1043D0009DF804000028F8D1434A00214348FFF724
:1043E00089FDD0B105463E4840F281160090334623
:1043F0002A463C490020FCF7F7FE8DF804409DF862
:104400000400009672B69DF8040030B1C820FFF792
:10441000B5FA9DF804000028F8D10D213348FFF7C4
:10442000C7FD02460123002130480094FFF73CFD00
:1044300000212E48FFF71CFD00212C48FFF710FD3E
:1044400006462B4D2B48FFF795FCD8B1074624486C
:104450004FF4C778009043463A4622490020FCF7C3
:10446000C3FE8DF81440CDF800809DF8140072B69C
:104470009DF8140030B1C820FFF780FA9DF81400B1
:104480000028F8D11C482A463146007BFFF7A2FCE1
:10449000002804BF06B0BDE8F0810546104840F290
:1044A0009116009033462A460E490020FCF79CFEE8
:1044B0008DF804409DF80400009672B69DF8040043
:1044C000002804BF06B0BDE8F081C820FFF756FA07
:1044D0009DF804000028F8D106B0BDE8F081000086
:1044E0008443000024230000FD4400002045000018
:1044F000047000400C000020000000207047000005
:10450000B0F5A07F18BF704700200149C8717047FF
:10451000000000200301010003000001020300016C
:1045200000800040080000000090004009010000E9
:10453000D98501009B0600000E01000000006806FE
:104540002C00000000000303000000000000030333
:1045500000000000303132333435363738394142CB
:104560004344454600010100000068065000000079
:104570009045000000000020A8000000061A00007E
:1045800038460000A8000020E8FD0000161A0000D0
:104590000400000000000000000100010000010014
:1045A000E803000000000000000000000000000020
:1045B000000000000000000000008000FFFF7F7F7F
:1045C00000000000FFFFFFFF3333F33F0000E04136
:1045D0000000FF439A99F93F0000E0410000FF43CB
:1045E00000000000000000000000000000000000CB
:1045F00000000000000000000000000000000000BB
:1046000000000000000000000000000000000000AA
:104610008B5A0100000000000000000000000000B4
:10462000000000000000000000000000000000008A
:08463000000000000090D0031F
:0400000500000401F2
:00000001FF
